{
  "contractName": "Buyer",
  "abi": [
    {
      "inputs": [
        {
          "internalType": "address",
          "name": "seller_address",
          "type": "address"
        }
      ],
      "stateMutability": "nonpayable",
      "type": "constructor"
    },
    {
      "inputs": [
        {
          "internalType": "bytes",
          "name": "call_data_buy",
          "type": "bytes"
        },
        {
          "internalType": "bytes",
          "name": "call_data_sell",
          "type": "bytes"
        },
        {
          "internalType": "uint256",
          "name": "borrow_amount",
          "type": "uint256"
        }
      ],
      "name": "buyNFT",
      "outputs": [],
      "stateMutability": "nonpayable",
      "type": "function"
    }
  ],
  "bytecode": "0x608060405234801561001057600080fd5b506040516103b93803806103b9833981810160405281019061003291906100db565b806000806101000a81548173ffffffffffffffffffffffffffffffffffffffff021916908373ffffffffffffffffffffffffffffffffffffffff16021790555050610108565b600080fd5b600073ffffffffffffffffffffffffffffffffffffffff82169050919050565b60006100a88261007d565b9050919050565b6100b88161009d565b81146100c357600080fd5b50565b6000815190506100d5816100af565b92915050565b6000602082840312156100f1576100f0610078565b5b60006100ff848285016100c6565b91505092915050565b6102a2806101176000396000f3fe608060405234801561001057600080fd5b506004361061002b5760003560e01c806349cea08b14610030575b600080fd5b61004a600480360381019061004591906101e1565b61004c565b005b505050565b6000604051905090565b600080fd5b600080fd5b600080fd5b600080fd5b6000601f19601f8301169050919050565b7f4e487b7100000000000000000000000000000000000000000000000000000000600052604160045260246000fd5b6100b88261006f565b810181811067ffffffffffffffff821117156100d7576100d6610080565b5b80604052505050565b60006100ea610051565b90506100f682826100af565b919050565b600067ffffffffffffffff82111561011657610115610080565b5b61011f8261006f565b9050602081019050919050565b82818337600083830152505050565b600061014e610149846100fb565b6100e0565b90508281526020810184848401111561016a5761016961006a565b5b61017584828561012c565b509392505050565b600082601f83011261019257610191610065565b5b81356101a284826020860161013b565b91505092915050565b6000819050919050565b6101be816101ab565b81146101c957600080fd5b50565b6000813590506101db816101b5565b92915050565b6000806000606084860312156101fa576101f961005b565b5b600084013567ffffffffffffffff81111561021857610217610060565b5b6102248682870161017d565b935050602084013567ffffffffffffffff81111561024557610244610060565b5b6102518682870161017d565b9250506040610262868287016101cc565b915050925092509256fea26469706673582212208df8c21152cee6ded45e7489c925ca2f46b4eaec4e46f9d290ba86482d43cb6f64736f6c634300080a0033",
  "immutableReferences": {},
  "source": " // SPDX-License-Identifier: GPL-3.0\r\n\r\npragma solidity >=0.7.0 <0.9.0;\r\n\r\nimport \"@openzeppelin/contracts/token/ERC20/ERC20.sol\";\r\n\r\ncontract WyvernExchange {\r\n\r\n    function approveOrder_(\r\n        address[7] memory addrs,\r\n        uint[9] memory uints,\r\n        uint8 feeMethod,\r\n        uint8 side,\r\n        uint8 saleKind,\r\n        uint8 howToCall,\r\n        bytes memory callData, // changed parameter name from calldata because calldata is already a keyword\r\n        bytes memory replacementPattern,\r\n        bytes memory staticExtradata,\r\n        bool orderbookInclusionDesired)\r\n        public\r\n    {}\r\n    function atomicMatch_(\r\n        address[14] memory addrs,\r\n        uint[18] memory uints,\r\n        uint8[8] memory feeMethodsSidesKindsHowToCalls,\r\n        bytes memory calldataBuy,\r\n        bytes memory calldataSell,\r\n        bytes memory replacementPatternBuy,\r\n        bytes memory replacementPatternSell,\r\n        bytes memory staticExtradataBuy,\r\n        bytes memory staticExtradataSell,\r\n        uint8[2] memory vs,\r\n        bytes32[5] memory rssMetadata)\r\n        public\r\n        payable\r\n    {}\r\n}\r\n\r\ncontract Buyer {\r\n    Seller seller;\r\n    constructor(address seller_address) {\r\n        seller = Seller(seller_address);\r\n    }\r\n\r\n    function buyNFT(bytes memory call_data_buy, bytes memory call_data_sell, uint borrow_amount) public {\r\n        // approveOrder\r\n        // atomicMatch\r\n    }\r\n}\r\n\r\n/**\r\n * @title Seller\r\n * @dev Sells the NFT\r\n */\r\ncontract Seller {\r\n\r\n    address public constant owner = 0x864041552CbA25B24A1398550e3AbeEb8868425f;\r\n    address public constant exchange_address = 0x5206e78b21Ce315ce284FB24cf05e0585A93B1d9;\r\n    address public constant fee_recipient = address(0);\r\n    address public constant nft_address = 0x88B48F654c30e99bc2e4A1559b4Dcf1aD93FA656;\r\n    address public constant static_call_target = address(0);\r\n    address public constant weth_address = 0xc778417E063141139Fce010982780140Aa0cD5Ab;\r\n    // Taker address is 0 when selling, and seller's address when buying.\r\n    \r\n    Buyer buyer;\r\n    WyvernExchange exchange;\r\n\r\n    uint public constant maker_relayer_fee = 0;\r\n    uint public constant taker_relayer_fee = 0;\r\n    uint public constant maker_protocol_fee = 0;\r\n    uint public constant taker_protocol_fee = 0;\r\n    uint public constant auction_extra = 0;\r\n    uint public constant expiration = 0;\r\n    uint public constant salt = 48498403098498545;\r\n    uint8 public constant fee_method = 1;\r\n    uint8 public constant sale_kind = 0;\r\n    uint8 public constant how_to_call = 0;\r\n    bytes public constant static_extra_data = \"\";\r\n    uint public constant original_salt = salt;\r\n\r\n\r\n\r\n    bytes public constant replacement_pattern_buy = \"0x00000000ffffffffffffffffffffffffffffffffffffffffffffffffffffffffffffffff00000000000000000000000000000000000000000000000000000000000000000000000000000000000000000000000000000000000000000000000000000000000000000000000000000000000000000000000000000000000000000000000000000000000000000000000000000000000000000000000000000000000000000000000000000000000000000000000000000000000000000000000000000000\";\r\n    bytes public constant replacement_pattern_sell = \"0x000000000000000000000000000000000000000000000000000000000000000000000000ffffffffffffffffffffffffffffffffffffffffffffffffffffffffffffffff0000000000000000000000000000000000000000000000000000000000000000000000000000000000000000000000000000000000000000000000000000000000000000000000000000000000000000000000000000000000000000000000000000000000000000000000000000000000000000000000000000000000000000\";\r\n    bytes32 public constant empty_bytes = \"\";\r\n    \r\n    \r\n    \r\n    // modifier to check if caller is owner\r\n    modifier isOwner() {\r\n        // If the first argument of 'require' evaluates to 'false', execution terminates and all\r\n        // changes to the state and to Ether balances are reverted.\r\n        // This used to consume all gas in old EVM versions, but not anymore.\r\n        // It is often a good idea to use 'require' to check if functions are called correctly.\r\n        // As a second argument, you can also provide an explanation about what went wrong.\r\n        require(msg.sender == owner, \"Caller is not owner\");\r\n        _;\r\n    }\r\n\r\n    constructor() {\r\n        buyer = new Buyer(address(this));\r\n        exchange = WyvernExchange(address(exchange_address));\r\n    }\r\n    \r\n    \r\n    function prepareNFT(uint price, bytes memory call_data_buy, bytes memory new_call_data_buy, bytes memory original_call_data_sell,\r\n        bytes memory new_call_data_sell, uint original_time, uint time,\r\n        address original_owner, uint borrow_amount) public isOwner {\r\n        // Buy NFT\r\n        exchange.approveOrder_([exchange_address,\r\n            address(this), // Maker address\r\n            original_owner, // Taker address\r\n            fee_recipient,\r\n            nft_address,\r\n            static_call_target,\r\n            weth_address],\r\n            [maker_relayer_fee,\r\n            taker_relayer_fee,\r\n            maker_protocol_fee,\r\n            taker_protocol_fee,\r\n            price,\r\n            auction_extra,\r\n            time,\r\n            expiration,\r\n            salt],\r\n            fee_method,\r\n            0,  // Side\r\n            sale_kind,\r\n            how_to_call,\r\n            call_data_buy,\r\n            replacement_pattern_buy,\r\n            static_extra_data,\r\n            true);\r\n        // call atomicmatch\r\n        exchange.atomicMatch_([exchange_address,\r\n            address(this), // Maker address\r\n            original_owner, // Taker address\r\n            fee_recipient,\r\n            nft_address,\r\n            static_call_target,\r\n            weth_address,\r\n            exchange_address,\r\n            original_owner,\r\n            address(0), // Taker address\r\n            fee_recipient,\r\n            nft_address,\r\n            static_call_target,\r\n            weth_address],\r\n            [maker_relayer_fee,\r\n            taker_relayer_fee,\r\n            maker_protocol_fee,\r\n            taker_protocol_fee,\r\n            price,\r\n            auction_extra,\r\n            time,\r\n            expiration,\r\n            salt,\r\n            maker_relayer_fee,\r\n            taker_relayer_fee,\r\n            maker_protocol_fee,\r\n            taker_protocol_fee,\r\n            price,\r\n            auction_extra,\r\n            original_time,\r\n            expiration,\r\n            original_salt],\r\n            [fee_method,\r\n            0,\r\n            sale_kind,\r\n            how_to_call,\r\n            fee_method,\r\n            1,\r\n            sale_kind,\r\n            how_to_call],\r\n            call_data_buy,\r\n            original_call_data_sell,\r\n            replacement_pattern_buy,\r\n            replacement_pattern_sell,\r\n            static_extra_data,\r\n            static_extra_data,\r\n            [0, 0],\r\n            [empty_bytes, empty_bytes, empty_bytes, empty_bytes, empty_bytes]);\r\n        // Place the NFT on sale\r\n        // call approveorder\r\n        exchange.approveOrder_([exchange_address,\r\n            address(this), // Maker address\r\n            address(0), // Taker address\r\n            fee_recipient,\r\n            nft_address,\r\n            static_call_target,\r\n            weth_address],\r\n            [maker_relayer_fee,\r\n            taker_relayer_fee,\r\n            maker_protocol_fee,\r\n            taker_protocol_fee,\r\n            borrow_amount,\r\n            auction_extra,\r\n            time,\r\n            expiration,\r\n            salt],\r\n            fee_method,\r\n            1,  // Side\r\n            sale_kind,\r\n            how_to_call,\r\n            new_call_data_sell,\r\n            replacement_pattern_sell,\r\n            static_extra_data,\r\n            true);\r\n            buyer.buyNFT(new_call_data_buy, new_call_data_sell, borrow_amount);\r\n    }\r\n\r\n    function transferBack() public {\r\n        ERC20 weth = ERC20(weth_address);\r\n        weth.transfer(address(buyer), weth.balanceOf(address(this)));\r\n    }\r\n}",
  "sourcePath": "C:\\Users\\Ibrahim\\Documents\\Coding\\nft-analysis\\truffle\\contracts\\wash-trader.sol",
  "compiler": {
    "name": "solc",
    "version": "0.8.10+commit.fc410830.Emscripten.clang"
  },
  "schemaVersion": "3.4.3",
  "updatedAt": "2021-12-03T18:02:28.862Z",
  "devdoc": {
    "kind": "dev",
    "methods": {},
    "version": 1
  },
  "userdoc": {
    "kind": "user",
    "methods": {},
    "version": 1
  }
}