{
  "contractName": "Seller",
  "abi": [
    {
      "inputs": [],
      "stateMutability": "nonpayable",
      "type": "constructor"
    },
    {
      "inputs": [],
      "name": "auction_extra",
      "outputs": [
        {
          "internalType": "uint256",
          "name": "",
          "type": "uint256"
        }
      ],
      "stateMutability": "view",
      "type": "function",
      "constant": true
    },
    {
      "inputs": [],
      "name": "empty_bytes",
      "outputs": [
        {
          "internalType": "bytes32",
          "name": "",
          "type": "bytes32"
        }
      ],
      "stateMutability": "view",
      "type": "function",
      "constant": true
    },
    {
      "inputs": [],
      "name": "exchange_address",
      "outputs": [
        {
          "internalType": "address",
          "name": "",
          "type": "address"
        }
      ],
      "stateMutability": "view",
      "type": "function",
      "constant": true
    },
    {
      "inputs": [],
      "name": "expiration",
      "outputs": [
        {
          "internalType": "uint256",
          "name": "",
          "type": "uint256"
        }
      ],
      "stateMutability": "view",
      "type": "function",
      "constant": true
    },
    {
      "inputs": [],
      "name": "fee_method",
      "outputs": [
        {
          "internalType": "uint8",
          "name": "",
          "type": "uint8"
        }
      ],
      "stateMutability": "view",
      "type": "function",
      "constant": true
    },
    {
      "inputs": [],
      "name": "fee_recipient",
      "outputs": [
        {
          "internalType": "address",
          "name": "",
          "type": "address"
        }
      ],
      "stateMutability": "view",
      "type": "function",
      "constant": true
    },
    {
      "inputs": [],
      "name": "how_to_call",
      "outputs": [
        {
          "internalType": "uint8",
          "name": "",
          "type": "uint8"
        }
      ],
      "stateMutability": "view",
      "type": "function",
      "constant": true
    },
    {
      "inputs": [],
      "name": "maker_protocol_fee",
      "outputs": [
        {
          "internalType": "uint256",
          "name": "",
          "type": "uint256"
        }
      ],
      "stateMutability": "view",
      "type": "function",
      "constant": true
    },
    {
      "inputs": [],
      "name": "maker_relayer_fee",
      "outputs": [
        {
          "internalType": "uint256",
          "name": "",
          "type": "uint256"
        }
      ],
      "stateMutability": "view",
      "type": "function",
      "constant": true
    },
    {
      "inputs": [],
      "name": "nft_address",
      "outputs": [
        {
          "internalType": "address",
          "name": "",
          "type": "address"
        }
      ],
      "stateMutability": "view",
      "type": "function",
      "constant": true
    },
    {
      "inputs": [],
      "name": "original_salt",
      "outputs": [
        {
          "internalType": "uint256",
          "name": "",
          "type": "uint256"
        }
      ],
      "stateMutability": "view",
      "type": "function",
      "constant": true
    },
    {
      "inputs": [],
      "name": "owner",
      "outputs": [
        {
          "internalType": "address",
          "name": "",
          "type": "address"
        }
      ],
      "stateMutability": "view",
      "type": "function",
      "constant": true
    },
    {
      "inputs": [],
      "name": "replacement_pattern_buy",
      "outputs": [
        {
          "internalType": "bytes",
          "name": "",
          "type": "bytes"
        }
      ],
      "stateMutability": "view",
      "type": "function",
      "constant": true
    },
    {
      "inputs": [],
      "name": "replacement_pattern_sell",
      "outputs": [
        {
          "internalType": "bytes",
          "name": "",
          "type": "bytes"
        }
      ],
      "stateMutability": "view",
      "type": "function",
      "constant": true
    },
    {
      "inputs": [],
      "name": "sale_kind",
      "outputs": [
        {
          "internalType": "uint8",
          "name": "",
          "type": "uint8"
        }
      ],
      "stateMutability": "view",
      "type": "function",
      "constant": true
    },
    {
      "inputs": [],
      "name": "salt",
      "outputs": [
        {
          "internalType": "uint256",
          "name": "",
          "type": "uint256"
        }
      ],
      "stateMutability": "view",
      "type": "function",
      "constant": true
    },
    {
      "inputs": [],
      "name": "static_call_target",
      "outputs": [
        {
          "internalType": "address",
          "name": "",
          "type": "address"
        }
      ],
      "stateMutability": "view",
      "type": "function",
      "constant": true
    },
    {
      "inputs": [],
      "name": "static_extra_data",
      "outputs": [
        {
          "internalType": "bytes",
          "name": "",
          "type": "bytes"
        }
      ],
      "stateMutability": "view",
      "type": "function",
      "constant": true
    },
    {
      "inputs": [],
      "name": "taker_protocol_fee",
      "outputs": [
        {
          "internalType": "uint256",
          "name": "",
          "type": "uint256"
        }
      ],
      "stateMutability": "view",
      "type": "function",
      "constant": true
    },
    {
      "inputs": [],
      "name": "taker_relayer_fee",
      "outputs": [
        {
          "internalType": "uint256",
          "name": "",
          "type": "uint256"
        }
      ],
      "stateMutability": "view",
      "type": "function",
      "constant": true
    },
    {
      "inputs": [],
      "name": "weth_address",
      "outputs": [
        {
          "internalType": "address",
          "name": "",
          "type": "address"
        }
      ],
      "stateMutability": "view",
      "type": "function",
      "constant": true
    },
    {
      "inputs": [
        {
          "internalType": "uint256",
          "name": "price",
          "type": "uint256"
        },
        {
          "internalType": "bytes",
          "name": "call_data_buy",
          "type": "bytes"
        },
        {
          "internalType": "bytes",
          "name": "new_call_data_buy",
          "type": "bytes"
        },
        {
          "internalType": "bytes",
          "name": "original_call_data_sell",
          "type": "bytes"
        },
        {
          "internalType": "bytes",
          "name": "new_call_data_sell",
          "type": "bytes"
        },
        {
          "internalType": "uint256",
          "name": "original_time",
          "type": "uint256"
        },
        {
          "internalType": "uint256",
          "name": "time",
          "type": "uint256"
        },
        {
          "internalType": "address",
          "name": "original_owner",
          "type": "address"
        },
        {
          "internalType": "uint256",
          "name": "borrow_amount",
          "type": "uint256"
        }
      ],
      "name": "prepareNFT",
      "outputs": [],
      "stateMutability": "nonpayable",
      "type": "function"
    },
    {
      "inputs": [],
      "name": "transferBack",
      "outputs": [],
      "stateMutability": "nonpayable",
      "type": "function"
    }
  ],
  "bytecode": "0x60806040523480156200001157600080fd5b50306040516200002190620000e5565b6200002d919062000138565b604051809103906000f0801580156200004a573d6000803e3d6000fd5b506000806101000a81548173ffffffffffffffffffffffffffffffffffffffff021916908373ffffffffffffffffffffffffffffffffffffffff160217905550735206e78b21ce315ce284fb24cf05e0585a93b1d9600160006101000a81548173ffffffffffffffffffffffffffffffffffffffff021916908373ffffffffffffffffffffffffffffffffffffffff16021790555062000155565b6103b9806200242583390190565b600073ffffffffffffffffffffffffffffffffffffffff82169050919050565b60006200012082620000f3565b9050919050565b620001328162000113565b82525050565b60006020820190506200014f600083018462000127565b92915050565b6122c080620001656000396000f3fe608060405234801561001057600080fd5b506004361061014d5760003560e01c806392899528116100c3578063c8617d221161007c578063c8617d221461033a578063d193d1da14610358578063d96a747414610376578063dcc9feee14610394578063e424e3a5146103b2578063ea7cadeb146103d05761014d565b80639289952814610286578063a10d205b146102a4578063bfa0b133146102c2578063c1a91f2f146102e0578063c2fb285c146102fe578063c78de7091461031c5761014d565b80634665096d116101155780634665096d146101d2578063758f969a146101f0578063891447f71461020e5780638a91b91e1461022c5780638da5cb5b1461024a5780638da6d2e9146102685761014d565b80631d7876e7146101525780631ee09d0b1461015c578063246126bd1461017a57806337733ed71461019857806341b64512146101b4575b600080fd5b61015a6103ee565b005b610164610522565b604051610171919061125b565b60405180910390f35b610182610527565b60405161018f91906112b7565b60405180910390f35b6101b260048036038101906101ad9190611484565b61053f565b005b6101bc61115c565b6040516101c99190611646565b60405180910390f35b6101da61117b565b6040516101e7919061125b565b60405180910390f35b6101f8611180565b60405161020591906112b7565b60405180910390f35b610216611185565b60405161022391906112b7565b60405180910390f35b61023461118a565b604051610241919061125b565b60405180910390f35b61025261118f565b60405161025f91906112b7565b60405180910390f35b6102706111a7565b60405161027d919061125b565b60405180910390f35b61028e6111ac565b60405161029b9190611646565b60405180910390f35b6102ac6111bf565b6040516102b9919061125b565b60405180910390f35b6102ca6111c4565b6040516102d7919061125b565b60405180910390f35b6102e86111cf565b6040516102f5919061125b565b60405180910390f35b6103066111da565b604051610313919061125b565b60405180910390f35b6103246111df565b60405161033191906112b7565b60405180910390f35b6103426111f7565b60405161034f91906112b7565b60405180910390f35b61036061120f565b60405161036d9190611684565b60405180910390f35b61037e611214565b60405161038b9190611646565b60405180910390f35b61039c611233565b6040516103a991906116b8565b60405180910390f35b6103ba611238565b6040516103c79190611684565b60405180910390f35b6103d861123d565b6040516103e59190611684565b60405180910390f35b600073c778417e063141139fce010982780140aa0cd5ab90508073ffffffffffffffffffffffffffffffffffffffff1663a9059cbb60008054906101000a900473ffffffffffffffffffffffffffffffffffffffff168373ffffffffffffffffffffffffffffffffffffffff166370a08231306040518263ffffffff1660e01b815260040161047d91906112b7565b602060405180830381865afa15801561049a573d6000803e3d6000fd5b505050506040513d601f19601f820116820180604052508101906104be91906116e8565b6040518363ffffffff1660e01b81526004016104db929190611715565b6020604051808303816000875af11580156104fa573d6000803e3d6000fd5b505050506040513d601f19601f8201168201806040525081019061051e9190611776565b5050565b600081565b73c778417e063141139fce010982780140aa0cd5ab81565b73864041552cba25b24a1398550e3abeeb8868425f73ffffffffffffffffffffffffffffffffffffffff163373ffffffffffffffffffffffffffffffffffffffff16146105c1576040517f08c379a00000000000000000000000000000000000000000000000000000000081526004016105b890611800565b60405180910390fd5b600160009054906101000a900473ffffffffffffffffffffffffffffffffffffffff1673ffffffffffffffffffffffffffffffffffffffff1663796668686040518060e00160405280735206e78b21ce315ce284fb24cf05e0585a93b1d973ffffffffffffffffffffffffffffffffffffffff1673ffffffffffffffffffffffffffffffffffffffff1681526020013073ffffffffffffffffffffffffffffffffffffffff1673ffffffffffffffffffffffffffffffffffffffff1681526020018573ffffffffffffffffffffffffffffffffffffffff1673ffffffffffffffffffffffffffffffffffffffff168152602001600073ffffffffffffffffffffffffffffffffffffffff1673ffffffffffffffffffffffffffffffffffffffff1681526020017388b48f654c30e99bc2e4a1559b4dcf1ad93fa65673ffffffffffffffffffffffffffffffffffffffff1673ffffffffffffffffffffffffffffffffffffffff168152602001600073ffffffffffffffffffffffffffffffffffffffff1673ffffffffffffffffffffffffffffffffffffffff16815260200173c778417e063141139fce010982780140aa0cd5ab73ffffffffffffffffffffffffffffffffffffffff1673ffffffffffffffffffffffffffffffffffffffff16815250604051806101200160405280600081526020016000815260200160008152602001600081526020018d8152602001600081526020018781526020016000815260200166ac4d0a68dc15f1815250600160008060008f604051806101c0016040528061018a815260200161210161018a91396040518060200160405280600081525060016040518b63ffffffff1660e01b815260040161084c9a999897969594939291906119ca565b600060405180830381600087803b15801561086657600080fd5b505af115801561087a573d6000803e3d6000fd5b50505050600160009054906101000a900473ffffffffffffffffffffffffffffffffffffffff1673ffffffffffffffffffffffffffffffffffffffff1663ab834bab604051806101c00160405280735206e78b21ce315ce284fb24cf05e0585a93b1d973ffffffffffffffffffffffffffffffffffffffff1673ffffffffffffffffffffffffffffffffffffffff1681526020013073ffffffffffffffffffffffffffffffffffffffff1673ffffffffffffffffffffffffffffffffffffffff1681526020018573ffffffffffffffffffffffffffffffffffffffff1673ffffffffffffffffffffffffffffffffffffffff168152602001600073ffffffffffffffffffffffffffffffffffffffff1673ffffffffffffffffffffffffffffffffffffffff1681526020017388b48f654c30e99bc2e4a1559b4dcf1ad93fa65673ffffffffffffffffffffffffffffffffffffffff1673ffffffffffffffffffffffffffffffffffffffff168152602001600073ffffffffffffffffffffffffffffffffffffffff1673ffffffffffffffffffffffffffffffffffffffff16815260200173c778417e063141139fce010982780140aa0cd5ab73ffffffffffffffffffffffffffffffffffffffff1673ffffffffffffffffffffffffffffffffffffffff168152602001735206e78b21ce315ce284fb24cf05e0585a93b1d973ffffffffffffffffffffffffffffffffffffffff1673ffffffffffffffffffffffffffffffffffffffff1681526020018573ffffffffffffffffffffffffffffffffffffffff1673ffffffffffffffffffffffffffffffffffffffff168152602001600073ffffffffffffffffffffffffffffffffffffffff1673ffffffffffffffffffffffffffffffffffffffff168152602001600073ffffffffffffffffffffffffffffffffffffffff1673ffffffffffffffffffffffffffffffffffffffff1681526020017388b48f654c30e99bc2e4a1559b4dcf1ad93fa65673ffffffffffffffffffffffffffffffffffffffff1673ffffffffffffffffffffffffffffffffffffffff168152602001600073ffffffffffffffffffffffffffffffffffffffff1673ffffffffffffffffffffffffffffffffffffffff16815260200173c778417e063141139fce010982780140aa0cd5ab73ffffffffffffffffffffffffffffffffffffffff1673ffffffffffffffffffffffffffffffffffffffff16815250604051806102400160405280600081526020016000815260200160008152602001600081526020018d8152602001600081526020018781526020016000815260200166ac4d0a68dc15f18152602001600081526020016000815260200160008152602001600081526020018d8152602001600081526020018881526020016000815260200166ac4d0a68dc15f1815250604051806101000160405280600160ff1660ff168152602001600060ff168152602001600060ff1660ff168152602001600060ff1660ff168152602001600160ff1660ff168152602001600160ff168152602001600060ff1660ff168152602001600060ff1660ff168152508c8b604051806101c0016040528061018a815260200161210161018a9139604051806101c0016040528061018a8152602001611f7761018a913960405180602001604052806000815250604051806020016040528060008152506040518060400160405280600060ff168152602001600060ff168152506040518060a001604052806000801916815260200160008019168152602001600080191681526020016000801916815260200160008019168152506040518c63ffffffff1660e01b8152600401610dd39b9a99989796959493929190611d63565b600060405180830381600087803b158015610ded57600080fd5b505af1158015610e01573d6000803e3d6000fd5b50505050600160009054906101000a900473ffffffffffffffffffffffffffffffffffffffff1673ffffffffffffffffffffffffffffffffffffffff1663796668686040518060e00160405280735206e78b21ce315ce284fb24cf05e0585a93b1d973ffffffffffffffffffffffffffffffffffffffff1673ffffffffffffffffffffffffffffffffffffffff1681526020013073ffffffffffffffffffffffffffffffffffffffff1673ffffffffffffffffffffffffffffffffffffffff168152602001600073ffffffffffffffffffffffffffffffffffffffff1673ffffffffffffffffffffffffffffffffffffffff168152602001600073ffffffffffffffffffffffffffffffffffffffff1673ffffffffffffffffffffffffffffffffffffffff1681526020017388b48f654c30e99bc2e4a1559b4dcf1ad93fa65673ffffffffffffffffffffffffffffffffffffffff1673ffffffffffffffffffffffffffffffffffffffff168152602001600073ffffffffffffffffffffffffffffffffffffffff1673ffffffffffffffffffffffffffffffffffffffff16815260200173c778417e063141139fce010982780140aa0cd5ab73ffffffffffffffffffffffffffffffffffffffff1673ffffffffffffffffffffffffffffffffffffffff1681525060405180610120016040528060008152602001600081526020016000815260200160008152602001858152602001600081526020018781526020016000815260200166ac4d0a68dc15f18152506001806000808c604051806101c0016040528061018a8152602001611f7761018a91396040518060200160405280600081525060016040518b63ffffffff1660e01b81526004016110909a99989796959493929190611e7a565b600060405180830381600087803b1580156110aa57600080fd5b505af11580156110be573d6000803e3d6000fd5b5050505060008054906101000a900473ffffffffffffffffffffffffffffffffffffffff1673ffffffffffffffffffffffffffffffffffffffff166349cea08b8887846040518463ffffffff1660e01b815260040161111f93929190611f31565b600060405180830381600087803b15801561113957600080fd5b505af115801561114d573d6000803e3d6000fd5b50505050505050505050505050565b604051806101c0016040528061018a8152602001611f7761018a913981565b600081565b600081565b600081565b600081565b73864041552cba25b24a1398550e3abeeb8868425f81565b600081565b6040518060200160405280600081525081565b600081565b66ac4d0a68dc15f181565b66ac4d0a68dc15f181565b600081565b7388b48f654c30e99bc2e4a1559b4dcf1ad93fa65681565b735206e78b21ce315ce284fb24cf05e0585a93b1d981565b600081565b604051806101c0016040528061018a815260200161210161018a913981565b600081565b600181565b600081565b6000819050919050565b61125581611242565b82525050565b6000602082019050611270600083018461124c565b92915050565b600073ffffffffffffffffffffffffffffffffffffffff82169050919050565b60006112a182611276565b9050919050565b6112b181611296565b82525050565b60006020820190506112cc60008301846112a8565b92915050565b6000604051905090565b600080fd5b600080fd5b6112ef81611242565b81146112fa57600080fd5b50565b60008135905061130c816112e6565b92915050565b600080fd5b600080fd5b6000601f19601f8301169050919050565b7f4e487b7100000000000000000000000000000000000000000000000000000000600052604160045260246000fd5b6113658261131c565b810181811067ffffffffffffffff821117156113845761138361132d565b5b80604052505050565b60006113976112d2565b90506113a3828261135c565b919050565b600067ffffffffffffffff8211156113c3576113c261132d565b5b6113cc8261131c565b9050602081019050919050565b82818337600083830152505050565b60006113fb6113f6846113a8565b61138d565b90508281526020810184848401111561141757611416611317565b5b6114228482856113d9565b509392505050565b600082601f83011261143f5761143e611312565b5b813561144f8482602086016113e8565b91505092915050565b61146181611296565b811461146c57600080fd5b50565b60008135905061147e81611458565b92915050565b60008060008060008060008060006101208a8c0312156114a7576114a66112dc565b5b60006114b58c828d016112fd565b99505060208a013567ffffffffffffffff8111156114d6576114d56112e1565b5b6114e28c828d0161142a565b98505060408a013567ffffffffffffffff811115611503576115026112e1565b5b61150f8c828d0161142a565b97505060608a013567ffffffffffffffff8111156115305761152f6112e1565b5b61153c8c828d0161142a565b96505060808a013567ffffffffffffffff81111561155d5761155c6112e1565b5b6115698c828d0161142a565b95505060a061157a8c828d016112fd565b94505060c061158b8c828d016112fd565b93505060e061159c8c828d0161146f565b9250506101006115ae8c828d016112fd565b9150509295985092959850929598565b600081519050919050565b600082825260208201905092915050565b60005b838110156115f85780820151818401526020810190506115dd565b83811115611607576000848401525b50505050565b6000611618826115be565b61162281856115c9565b93506116328185602086016115da565b61163b8161131c565b840191505092915050565b60006020820190508181036000830152611660818461160d565b905092915050565b600060ff82169050919050565b61167e81611668565b82525050565b60006020820190506116996000830184611675565b92915050565b6000819050919050565b6116b28161169f565b82525050565b60006020820190506116cd60008301846116a9565b92915050565b6000815190506116e2816112e6565b92915050565b6000602082840312156116fe576116fd6112dc565b5b600061170c848285016116d3565b91505092915050565b600060408201905061172a60008301856112a8565b611737602083018461124c565b9392505050565b60008115159050919050565b6117538161173e565b811461175e57600080fd5b50565b6000815190506117708161174a565b92915050565b60006020828403121561178c5761178b6112dc565b5b600061179a84828501611761565b91505092915050565b600082825260208201905092915050565b7f43616c6c6572206973206e6f74206f776e657200000000000000000000000000600082015250565b60006117ea6013836117a3565b91506117f5826117b4565b602082019050919050565b60006020820190508181036000830152611819816117dd565b9050919050565b600060079050919050565b600081905092915050565b6000819050919050565b61184981611296565b82525050565b600061185b8383611840565b60208301905092915050565b6000602082019050919050565b61187d81611820565b611887818461182b565b925061189282611836565b8060005b838110156118c35781516118aa878261184f565b96506118b583611867565b925050600181019050611896565b505050505050565b600060099050919050565b600081905092915050565b6000819050919050565b6118f481611242565b82525050565b600061190683836118eb565b60208301905092915050565b6000602082019050919050565b611928816118cb565b61193281846118d6565b925061193d826118e1565b8060005b8381101561196e57815161195587826118fa565b965061196083611912565b925050600181019050611941565b505050505050565b6000819050919050565b6000819050919050565b60006119a56119a061199b84611976565b611980565b611668565b9050919050565b6119b58161198a565b82525050565b6119c48161173e565b82525050565b6000610300820190506119e0600083018d611874565b6119ed60e083018c61191f565b6119fb61020083018b611675565b611a0961022083018a6119ac565b611a17610240830189611675565b611a25610260830188611675565b818103610280830152611a38818761160d565b90508181036102a0830152611a4d818661160d565b90508181036102c0830152611a62818561160d565b9050611a726102e08301846119bb565b9b9a5050505050505050505050565b6000600e9050919050565b600081905092915050565b6000819050919050565b6000602082019050919050565b611ab781611a81565b611ac18184611a8c565b9250611acc82611a97565b8060005b83811015611afd578151611ae4878261184f565b9650611aef83611aa1565b925050600181019050611ad0565b505050505050565b600060129050919050565b600081905092915050565b6000819050919050565b6000602082019050919050565b611b3b81611b05565b611b458184611b10565b9250611b5082611b1b565b8060005b83811015611b81578151611b6887826118fa565b9650611b7383611b25565b925050600181019050611b54565b505050505050565b600060089050919050565b600081905092915050565b6000819050919050565b611bb281611668565b82525050565b6000611bc48383611ba9565b60208301905092915050565b6000602082019050919050565b611be681611b89565b611bf08184611b94565b9250611bfb82611b9f565b8060005b83811015611c2c578151611c138782611bb8565b9650611c1e83611bd0565b925050600181019050611bff565b505050505050565b600060029050919050565b600081905092915050565b6000819050919050565b6000602082019050919050565b611c6a81611c34565b611c748184611c3f565b9250611c7f82611c4a565b8060005b83811015611cb0578151611c978782611bb8565b9650611ca283611c54565b925050600181019050611c83565b505050505050565b600060059050919050565b600081905092915050565b6000819050919050565b611ce18161169f565b82525050565b6000611cf38383611cd8565b60208301905092915050565b6000602082019050919050565b611d1581611cb8565b611d1f8184611cc3565b9250611d2a82611cce565b8060005b83811015611d5b578151611d428782611ce7565b9650611d4d83611cff565b925050600181019050611d2e565b505050505050565b60006106a082019050611d79600083018e611aae565b611d876101c083018d611b32565b611d9561040083018c611bdd565b818103610500830152611da8818b61160d565b9050818103610520830152611dbd818a61160d565b9050818103610540830152611dd2818961160d565b9050818103610560830152611de7818861160d565b9050818103610580830152611dfc818761160d565b90508181036105a0830152611e11818661160d565b9050611e216105c0830185611c61565b611e2f610600830184611d0c565b9c9b505050505050505050505050565b6000819050919050565b6000611e64611e5f611e5a84611e3f565b611980565b611668565b9050919050565b611e7481611e49565b82525050565b600061030082019050611e90600083018d611874565b611e9d60e083018c61191f565b611eab61020083018b611675565b611eb961022083018a611e6b565b611ec7610240830189611675565b611ed5610260830188611675565b818103610280830152611ee8818761160d565b90508181036102a0830152611efd818661160d565b90508181036102c0830152611f12818561160d565b9050611f226102e08301846119bb565b9b9a5050505050505050505050565b60006060820190508181036000830152611f4b818661160d565b90508181036020830152611f5f818561160d565b9050611f6e604083018461124c565b94935050505056fe3078303030303030303030303030303030303030303030303030303030303030303030303030303030303030303030303030303030303030303030303030303030303030303030303030666666666666666666666666666666666666666666666666666666666666666666666666666666666666666666666666666666666666666666666666666666663030303030303030303030303030303030303030303030303030303030303030303030303030303030303030303030303030303030303030303030303030303030303030303030303030303030303030303030303030303030303030303030303030303030303030303030303030303030303030303030303030303030303030303030303030303030303030303030303030303030303030303030303030303030303030303030303030303030303030303030303030303030303030303030303030303030303030303030303030303030303030303030303030303030303030303030303030303030303030303030303030303030303030303030303030303030783030303030303030666666666666666666666666666666666666666666666666666666666666666666666666666666666666666666666666666666666666666666666666666666663030303030303030303030303030303030303030303030303030303030303030303030303030303030303030303030303030303030303030303030303030303030303030303030303030303030303030303030303030303030303030303030303030303030303030303030303030303030303030303030303030303030303030303030303030303030303030303030303030303030303030303030303030303030303030303030303030303030303030303030303030303030303030303030303030303030303030303030303030303030303030303030303030303030303030303030303030303030303030303030303030303030303030303030303030303030303030303030303030303030303030303030303030303030303030303030303030303030303030303030303030303030303030303030303030303030303030a26469706673582212200294baac29dcee431417eeff11225d32c4ec54144faacc357150581e1a83efd064736f6c634300080a0033608060405234801561001057600080fd5b506040516103b93803806103b9833981810160405281019061003291906100db565b806000806101000a81548173ffffffffffffffffffffffffffffffffffffffff021916908373ffffffffffffffffffffffffffffffffffffffff16021790555050610108565b600080fd5b600073ffffffffffffffffffffffffffffffffffffffff82169050919050565b60006100a88261007d565b9050919050565b6100b88161009d565b81146100c357600080fd5b50565b6000815190506100d5816100af565b92915050565b6000602082840312156100f1576100f0610078565b5b60006100ff848285016100c6565b91505092915050565b6102a2806101176000396000f3fe608060405234801561001057600080fd5b506004361061002b5760003560e01c806349cea08b14610030575b600080fd5b61004a600480360381019061004591906101e1565b61004c565b005b505050565b6000604051905090565b600080fd5b600080fd5b600080fd5b600080fd5b6000601f19601f8301169050919050565b7f4e487b7100000000000000000000000000000000000000000000000000000000600052604160045260246000fd5b6100b88261006f565b810181811067ffffffffffffffff821117156100d7576100d6610080565b5b80604052505050565b60006100ea610051565b90506100f682826100af565b919050565b600067ffffffffffffffff82111561011657610115610080565b5b61011f8261006f565b9050602081019050919050565b82818337600083830152505050565b600061014e610149846100fb565b6100e0565b90508281526020810184848401111561016a5761016961006a565b5b61017584828561012c565b509392505050565b600082601f83011261019257610191610065565b5b81356101a284826020860161013b565b91505092915050565b6000819050919050565b6101be816101ab565b81146101c957600080fd5b50565b6000813590506101db816101b5565b92915050565b6000806000606084860312156101fa576101f961005b565b5b600084013567ffffffffffffffff81111561021857610217610060565b5b6102248682870161017d565b935050602084013567ffffffffffffffff81111561024557610244610060565b5b6102518682870161017d565b9250506040610262868287016101cc565b915050925092509256fea26469706673582212208df8c21152cee6ded45e7489c925ca2f46b4eaec4e46f9d290ba86482d43cb6f64736f6c634300080a0033",
  "immutableReferences": {},
  "source": " // SPDX-License-Identifier: GPL-3.0\r\n\r\npragma solidity >=0.7.0 <0.9.0;\r\n\r\nimport \"@openzeppelin/contracts/token/ERC20/ERC20.sol\";\r\n\r\ncontract WyvernExchange {\r\n\r\n    function approveOrder_(\r\n        address[7] memory addrs,\r\n        uint[9] memory uints,\r\n        uint8 feeMethod,\r\n        uint8 side,\r\n        uint8 saleKind,\r\n        uint8 howToCall,\r\n        bytes memory callData, // changed parameter name from calldata because calldata is already a keyword\r\n        bytes memory replacementPattern,\r\n        bytes memory staticExtradata,\r\n        bool orderbookInclusionDesired)\r\n        public\r\n    {}\r\n    function atomicMatch_(\r\n        address[14] memory addrs,\r\n        uint[18] memory uints,\r\n        uint8[8] memory feeMethodsSidesKindsHowToCalls,\r\n        bytes memory calldataBuy,\r\n        bytes memory calldataSell,\r\n        bytes memory replacementPatternBuy,\r\n        bytes memory replacementPatternSell,\r\n        bytes memory staticExtradataBuy,\r\n        bytes memory staticExtradataSell,\r\n        uint8[2] memory vs,\r\n        bytes32[5] memory rssMetadata)\r\n        public\r\n        payable\r\n    {}\r\n}\r\n\r\ncontract Buyer {\r\n    Seller seller;\r\n    constructor(address seller_address) {\r\n        seller = Seller(seller_address);\r\n    }\r\n\r\n    function buyNFT(bytes memory call_data_buy, bytes memory call_data_sell, uint borrow_amount) public {\r\n        // approveOrder\r\n        // atomicMatch\r\n    }\r\n}\r\n\r\n/**\r\n * @title Seller\r\n * @dev Sells the NFT\r\n */\r\ncontract Seller {\r\n\r\n    address public constant owner = 0x864041552CbA25B24A1398550e3AbeEb8868425f;\r\n    address public constant exchange_address = 0x5206e78b21Ce315ce284FB24cf05e0585A93B1d9;\r\n    address public constant fee_recipient = address(0);\r\n    address public constant nft_address = 0x88B48F654c30e99bc2e4A1559b4Dcf1aD93FA656;\r\n    address public constant static_call_target = address(0);\r\n    address public constant weth_address = 0xc778417E063141139Fce010982780140Aa0cD5Ab;\r\n    // Taker address is 0 when selling, and seller's address when buying.\r\n    \r\n    Buyer buyer;\r\n    WyvernExchange exchange;\r\n\r\n    uint public constant maker_relayer_fee = 0;\r\n    uint public constant taker_relayer_fee = 0;\r\n    uint public constant maker_protocol_fee = 0;\r\n    uint public constant taker_protocol_fee = 0;\r\n    uint public constant auction_extra = 0;\r\n    uint public constant expiration = 0;\r\n    uint public constant salt = 48498403098498545;\r\n    uint8 public constant fee_method = 1;\r\n    uint8 public constant sale_kind = 0;\r\n    uint8 public constant how_to_call = 0;\r\n    bytes public constant static_extra_data = \"\";\r\n    uint public constant original_salt = salt;\r\n\r\n\r\n\r\n    bytes public constant replacement_pattern_buy = \"0x00000000ffffffffffffffffffffffffffffffffffffffffffffffffffffffffffffffff00000000000000000000000000000000000000000000000000000000000000000000000000000000000000000000000000000000000000000000000000000000000000000000000000000000000000000000000000000000000000000000000000000000000000000000000000000000000000000000000000000000000000000000000000000000000000000000000000000000000000000000000000000000\";\r\n    bytes public constant replacement_pattern_sell = \"0x000000000000000000000000000000000000000000000000000000000000000000000000ffffffffffffffffffffffffffffffffffffffffffffffffffffffffffffffff0000000000000000000000000000000000000000000000000000000000000000000000000000000000000000000000000000000000000000000000000000000000000000000000000000000000000000000000000000000000000000000000000000000000000000000000000000000000000000000000000000000000000000\";\r\n    bytes32 public constant empty_bytes = \"\";\r\n    \r\n    \r\n    \r\n    // modifier to check if caller is owner\r\n    modifier isOwner() {\r\n        // If the first argument of 'require' evaluates to 'false', execution terminates and all\r\n        // changes to the state and to Ether balances are reverted.\r\n        // This used to consume all gas in old EVM versions, but not anymore.\r\n        // It is often a good idea to use 'require' to check if functions are called correctly.\r\n        // As a second argument, you can also provide an explanation about what went wrong.\r\n        require(msg.sender == owner, \"Caller is not owner\");\r\n        _;\r\n    }\r\n\r\n    constructor() {\r\n        buyer = new Buyer(address(this));\r\n        exchange = WyvernExchange(address(exchange_address));\r\n    }\r\n    \r\n    \r\n    function prepareNFT(uint price, bytes memory call_data_buy, bytes memory new_call_data_buy, bytes memory original_call_data_sell,\r\n        bytes memory new_call_data_sell, uint original_time, uint time,\r\n        address original_owner, uint borrow_amount) public isOwner {\r\n        // Buy NFT\r\n        exchange.approveOrder_([exchange_address,\r\n            address(this), // Maker address\r\n            original_owner, // Taker address\r\n            fee_recipient,\r\n            nft_address,\r\n            static_call_target,\r\n            weth_address],\r\n            [maker_relayer_fee,\r\n            taker_relayer_fee,\r\n            maker_protocol_fee,\r\n            taker_protocol_fee,\r\n            price,\r\n            auction_extra,\r\n            time,\r\n            expiration,\r\n            salt],\r\n            fee_method,\r\n            0,  // Side\r\n            sale_kind,\r\n            how_to_call,\r\n            call_data_buy,\r\n            replacement_pattern_buy,\r\n            static_extra_data,\r\n            true);\r\n        // call atomicmatch\r\n        exchange.atomicMatch_([exchange_address,\r\n            address(this), // Maker address\r\n            original_owner, // Taker address\r\n            fee_recipient,\r\n            nft_address,\r\n            static_call_target,\r\n            weth_address,\r\n            exchange_address,\r\n            original_owner,\r\n            address(0), // Taker address\r\n            fee_recipient,\r\n            nft_address,\r\n            static_call_target,\r\n            weth_address],\r\n            [maker_relayer_fee,\r\n            taker_relayer_fee,\r\n            maker_protocol_fee,\r\n            taker_protocol_fee,\r\n            price,\r\n            auction_extra,\r\n            time,\r\n            expiration,\r\n            salt,\r\n            maker_relayer_fee,\r\n            taker_relayer_fee,\r\n            maker_protocol_fee,\r\n            taker_protocol_fee,\r\n            price,\r\n            auction_extra,\r\n            original_time,\r\n            expiration,\r\n            original_salt],\r\n            [fee_method,\r\n            0,\r\n            sale_kind,\r\n            how_to_call,\r\n            fee_method,\r\n            1,\r\n            sale_kind,\r\n            how_to_call],\r\n            call_data_buy,\r\n            original_call_data_sell,\r\n            replacement_pattern_buy,\r\n            replacement_pattern_sell,\r\n            static_extra_data,\r\n            static_extra_data,\r\n            [0, 0],\r\n            [empty_bytes, empty_bytes, empty_bytes, empty_bytes, empty_bytes]);\r\n        // Place the NFT on sale\r\n        // call approveorder\r\n        exchange.approveOrder_([exchange_address,\r\n            address(this), // Maker address\r\n            address(0), // Taker address\r\n            fee_recipient,\r\n            nft_address,\r\n            static_call_target,\r\n            weth_address],\r\n            [maker_relayer_fee,\r\n            taker_relayer_fee,\r\n            maker_protocol_fee,\r\n            taker_protocol_fee,\r\n            borrow_amount,\r\n            auction_extra,\r\n            time,\r\n            expiration,\r\n            salt],\r\n            fee_method,\r\n            1,  // Side\r\n            sale_kind,\r\n            how_to_call,\r\n            new_call_data_sell,\r\n            replacement_pattern_sell,\r\n            static_extra_data,\r\n            true);\r\n            buyer.buyNFT(new_call_data_buy, new_call_data_sell, borrow_amount);\r\n    }\r\n\r\n    function transferBack() public {\r\n        ERC20 weth = ERC20(weth_address);\r\n        weth.transfer(address(buyer), weth.balanceOf(address(this)));\r\n    }\r\n}",
  "sourcePath": "C:\\Users\\Ibrahim\\Documents\\Coding\\nft-analysis\\truffle\\contracts\\wash-trader.sol",
  "compiler": {
    "name": "solc",
    "version": "0.8.10+commit.fc410830.Emscripten.clang"
  },
  "schemaVersion": "3.4.3",
  "updatedAt": "2021-12-03T18:02:36.128Z",
  "networkType": "ethereum",
  "devdoc": {
    "details": "Sells the NFT",
    "kind": "dev",
    "methods": {},
    "title": "Seller",
    "version": 1
  },
  "userdoc": {
    "kind": "user",
    "methods": {},
    "version": 1
  }
}