{
  "contractName": "WyvernExchange",
  "abi": [
    {
      "inputs": [
        {
          "internalType": "address[7]",
          "name": "addrs",
          "type": "address[7]"
        },
        {
          "internalType": "uint256[9]",
          "name": "uints",
          "type": "uint256[9]"
        },
        {
          "internalType": "uint8",
          "name": "feeMethod",
          "type": "uint8"
        },
        {
          "internalType": "uint8",
          "name": "side",
          "type": "uint8"
        },
        {
          "internalType": "uint8",
          "name": "saleKind",
          "type": "uint8"
        },
        {
          "internalType": "uint8",
          "name": "howToCall",
          "type": "uint8"
        },
        {
          "internalType": "bytes",
          "name": "callData",
          "type": "bytes"
        },
        {
          "internalType": "bytes",
          "name": "replacementPattern",
          "type": "bytes"
        },
        {
          "internalType": "bytes",
          "name": "staticExtradata",
          "type": "bytes"
        },
        {
          "internalType": "bool",
          "name": "orderbookInclusionDesired",
          "type": "bool"
        }
      ],
      "name": "approveOrder_",
      "outputs": [],
      "stateMutability": "nonpayable",
      "type": "function"
    },
    {
      "inputs": [
        {
          "internalType": "address[14]",
          "name": "addrs",
          "type": "address[14]"
        },
        {
          "internalType": "uint256[18]",
          "name": "uints",
          "type": "uint256[18]"
        },
        {
          "internalType": "uint8[8]",
          "name": "feeMethodsSidesKindsHowToCalls",
          "type": "uint8[8]"
        },
        {
          "internalType": "bytes",
          "name": "calldataBuy",
          "type": "bytes"
        },
        {
          "internalType": "bytes",
          "name": "calldataSell",
          "type": "bytes"
        },
        {
          "internalType": "bytes",
          "name": "replacementPatternBuy",
          "type": "bytes"
        },
        {
          "internalType": "bytes",
          "name": "replacementPatternSell",
          "type": "bytes"
        },
        {
          "internalType": "bytes",
          "name": "staticExtradataBuy",
          "type": "bytes"
        },
        {
          "internalType": "bytes",
          "name": "staticExtradataSell",
          "type": "bytes"
        },
        {
          "internalType": "uint8[2]",
          "name": "vs",
          "type": "uint8[2]"
        },
        {
          "internalType": "bytes32[5]",
          "name": "rssMetadata",
          "type": "bytes32[5]"
        }
      ],
      "name": "atomicMatch_",
      "outputs": [],
      "stateMutability": "payable",
      "type": "function"
    }
  ],
  "bytecode": "0x608060405234801561001057600080fd5b50610b0f806100206000396000f3fe6080604052600436106100295760003560e01c8063796668681461002e578063ab834bab14610057575b600080fd5b34801561003a57600080fd5b5061005560048036038101906100509190610452565b610073565b005b610071600480360381019061006c9190610936565b61007f565b005b50505050505050505050565b5050505050505050505050565b6000604051905090565b600080fd5b600080fd5b600080fd5b6000601f19601f8301169050919050565b7f4e487b7100000000000000000000000000000000000000000000000000000000600052604160045260246000fd5b6100ee826100a5565b810181811067ffffffffffffffff8211171561010d5761010c6100b6565b5b80604052505050565b600061012061008c565b905061012c82826100e5565b919050565b600067ffffffffffffffff82111561014c5761014b6100b6565b5b602082029050919050565b600080fd5b600073ffffffffffffffffffffffffffffffffffffffff82169050919050565b60006101878261015c565b9050919050565b6101978161017c565b81146101a257600080fd5b50565b6000813590506101b48161018e565b92915050565b60006101cd6101c884610131565b610116565b905080602084028301858111156101e7576101e6610157565b5b835b8181101561021057806101fc88826101a5565b8452602084019350506020810190506101e9565b5050509392505050565b600082601f83011261022f5761022e6100a0565b5b600761023c8482856101ba565b91505092915050565b600067ffffffffffffffff8211156102605761025f6100b6565b5b602082029050919050565b6000819050919050565b61027e8161026b565b811461028957600080fd5b50565b60008135905061029b81610275565b92915050565b60006102b46102af84610245565b610116565b905080602084028301858111156102ce576102cd610157565b5b835b818110156102f757806102e3888261028c565b8452602084019350506020810190506102d0565b5050509392505050565b600082601f830112610316576103156100a0565b5b60096103238482856102a1565b91505092915050565b600060ff82169050919050565b6103428161032c565b811461034d57600080fd5b50565b60008135905061035f81610339565b92915050565b600080fd5b600067ffffffffffffffff821115610385576103846100b6565b5b61038e826100a5565b9050602081019050919050565b82818337600083830152505050565b60006103bd6103b88461036a565b610116565b9050828152602081018484840111156103d9576103d8610365565b5b6103e484828561039b565b509392505050565b600082601f830112610401576104006100a0565b5b81356104118482602086016103aa565b91505092915050565b60008115159050919050565b61042f8161041a565b811461043a57600080fd5b50565b60008135905061044c81610426565b92915050565b6000806000806000806000806000806103008b8d03121561047657610475610096565b5b60006104848d828e0161021a565b9a505060e06104958d828e01610301565b9950506102006104a78d828e01610350565b9850506102206104b98d828e01610350565b9750506102406104cb8d828e01610350565b9650506102606104dd8d828e01610350565b9550506102808b013567ffffffffffffffff8111156104ff576104fe61009b565b5b61050b8d828e016103ec565b9450506102a08b013567ffffffffffffffff81111561052d5761052c61009b565b5b6105398d828e016103ec565b9350506102c08b013567ffffffffffffffff81111561055b5761055a61009b565b5b6105678d828e016103ec565b9250506102e06105798d828e0161043d565b9150509295989b9194979a5092959850565b600067ffffffffffffffff8211156105a6576105a56100b6565b5b602082029050919050565b60006105c46105bf8461058b565b610116565b905080602084028301858111156105de576105dd610157565b5b835b8181101561060757806105f388826101a5565b8452602084019350506020810190506105e0565b5050509392505050565b600082601f830112610626576106256100a0565b5b600e6106338482856105b1565b91505092915050565b600067ffffffffffffffff821115610657576106566100b6565b5b602082029050919050565b60006106756106708461063c565b610116565b9050806020840283018581111561068f5761068e610157565b5b835b818110156106b857806106a4888261028c565b845260208401935050602081019050610691565b5050509392505050565b600082601f8301126106d7576106d66100a0565b5b60126106e4848285610662565b91505092915050565b600067ffffffffffffffff821115610708576107076100b6565b5b602082029050919050565b6000610726610721846106ed565b610116565b905080602084028301858111156107405761073f610157565b5b835b8181101561076957806107558882610350565b845260208401935050602081019050610742565b5050509392505050565b600082601f830112610788576107876100a0565b5b6008610795848285610713565b91505092915050565b600067ffffffffffffffff8211156107b9576107b86100b6565b5b602082029050919050565b60006107d76107d28461079e565b610116565b905080602084028301858111156107f1576107f0610157565b5b835b8181101561081a57806108068882610350565b8452602084019350506020810190506107f3565b5050509392505050565b600082601f830112610839576108386100a0565b5b60026108468482856107c4565b91505092915050565b600067ffffffffffffffff82111561086a576108696100b6565b5b602082029050919050565b6000819050919050565b61088881610875565b811461089357600080fd5b50565b6000813590506108a58161087f565b92915050565b60006108be6108b98461084f565b610116565b905080602084028301858111156108d8576108d7610157565b5b835b8181101561090157806108ed8882610896565b8452602084019350506020810190506108da565b5050509392505050565b600082601f8301126109205761091f6100a0565b5b600561092d8482856108ab565b91505092915050565b60008060008060008060008060008060006106a08c8e03121561095c5761095b610096565b5b600061096a8e828f01610611565b9b50506101c061097c8e828f016106c2565b9a505061040061098e8e828f01610773565b9950506105008c013567ffffffffffffffff8111156109b0576109af61009b565b5b6109bc8e828f016103ec565b9850506105208c013567ffffffffffffffff8111156109de576109dd61009b565b5b6109ea8e828f016103ec565b9750506105408c013567ffffffffffffffff811115610a0c57610a0b61009b565b5b610a188e828f016103ec565b9650506105608c013567ffffffffffffffff811115610a3a57610a3961009b565b5b610a468e828f016103ec565b9550506105808c013567ffffffffffffffff811115610a6857610a6761009b565b5b610a748e828f016103ec565b9450506105a08c013567ffffffffffffffff811115610a9657610a9561009b565b5b610aa28e828f016103ec565b9350506105c0610ab48e828f01610824565b925050610600610ac68e828f0161090b565b9150509295989b509295989b909396995056fea2646970667358221220a3ceb550be611009dc56c3fca2d6a62593f866a74d7ecdb3328dcdba86fb8ca664736f6c634300080a0033",
  "immutableReferences": {},
  "source": " // SPDX-License-Identifier: GPL-3.0\r\n\r\npragma solidity >=0.7.0 <0.9.0;\r\n\r\nimport \"@openzeppelin/contracts/token/ERC20/ERC20.sol\";\r\n\r\ncontract WyvernExchange {\r\n\r\n    function approveOrder_(\r\n        address[7] memory addrs,\r\n        uint[9] memory uints,\r\n        uint8 feeMethod,\r\n        uint8 side,\r\n        uint8 saleKind,\r\n        uint8 howToCall,\r\n        bytes memory callData, // changed parameter name from calldata because calldata is already a keyword\r\n        bytes memory replacementPattern,\r\n        bytes memory staticExtradata,\r\n        bool orderbookInclusionDesired)\r\n        public\r\n    {}\r\n    function atomicMatch_(\r\n        address[14] memory addrs,\r\n        uint[18] memory uints,\r\n        uint8[8] memory feeMethodsSidesKindsHowToCalls,\r\n        bytes memory calldataBuy,\r\n        bytes memory calldataSell,\r\n        bytes memory replacementPatternBuy,\r\n        bytes memory replacementPatternSell,\r\n        bytes memory staticExtradataBuy,\r\n        bytes memory staticExtradataSell,\r\n        uint8[2] memory vs,\r\n        bytes32[5] memory rssMetadata)\r\n        public\r\n        payable\r\n    {}\r\n}\r\n\r\ncontract Buyer {\r\n    Seller seller;\r\n    constructor(address seller_address) {\r\n        seller = Seller(seller_address);\r\n    }\r\n\r\n    function buyNFT(bytes memory call_data_buy, bytes memory call_data_sell, uint borrow_amount) public {\r\n        // approveOrder\r\n        // atomicMatch\r\n    }\r\n}\r\n\r\n/**\r\n * @title Seller\r\n * @dev Sells the NFT\r\n */\r\ncontract Seller {\r\n\r\n    address public constant owner = 0x864041552CbA25B24A1398550e3AbeEb8868425f;\r\n    address public constant exchange_address = 0x5206e78b21Ce315ce284FB24cf05e0585A93B1d9;\r\n    address public constant fee_recipient = address(0);\r\n    address public constant nft_address = 0x88B48F654c30e99bc2e4A1559b4Dcf1aD93FA656;\r\n    address public constant static_call_target = address(0);\r\n    address public constant weth_address = 0xc778417E063141139Fce010982780140Aa0cD5Ab;\r\n    // Taker address is 0 when selling, and seller's address when buying.\r\n    \r\n    Buyer buyer;\r\n    WyvernExchange exchange;\r\n\r\n    uint public constant maker_relayer_fee = 0;\r\n    uint public constant taker_relayer_fee = 0;\r\n    uint public constant maker_protocol_fee = 0;\r\n    uint public constant taker_protocol_fee = 0;\r\n    uint public constant auction_extra = 0;\r\n    uint public constant expiration = 0;\r\n    uint public constant salt = 48498403098498545;\r\n    uint8 public constant fee_method = 1;\r\n    uint8 public constant sale_kind = 0;\r\n    uint8 public constant how_to_call = 0;\r\n    bytes public constant static_extra_data = \"\";\r\n    uint public constant original_salt = salt;\r\n\r\n\r\n\r\n    bytes public constant replacement_pattern_buy = \"0x00000000ffffffffffffffffffffffffffffffffffffffffffffffffffffffffffffffff00000000000000000000000000000000000000000000000000000000000000000000000000000000000000000000000000000000000000000000000000000000000000000000000000000000000000000000000000000000000000000000000000000000000000000000000000000000000000000000000000000000000000000000000000000000000000000000000000000000000000000000000000000000\";\r\n    bytes public constant replacement_pattern_sell = \"0x000000000000000000000000000000000000000000000000000000000000000000000000ffffffffffffffffffffffffffffffffffffffffffffffffffffffffffffffff0000000000000000000000000000000000000000000000000000000000000000000000000000000000000000000000000000000000000000000000000000000000000000000000000000000000000000000000000000000000000000000000000000000000000000000000000000000000000000000000000000000000000000\";\r\n    bytes32 public constant empty_bytes = \"\";\r\n    \r\n    \r\n    \r\n    // modifier to check if caller is owner\r\n    modifier isOwner() {\r\n        // If the first argument of 'require' evaluates to 'false', execution terminates and all\r\n        // changes to the state and to Ether balances are reverted.\r\n        // This used to consume all gas in old EVM versions, but not anymore.\r\n        // It is often a good idea to use 'require' to check if functions are called correctly.\r\n        // As a second argument, you can also provide an explanation about what went wrong.\r\n        require(msg.sender == owner, \"Caller is not owner\");\r\n        _;\r\n    }\r\n\r\n    constructor() {\r\n        buyer = new Buyer(address(this));\r\n        exchange = WyvernExchange(address(exchange_address));\r\n    }\r\n    \r\n    \r\n    function prepareNFT(uint price, bytes memory call_data_buy, bytes memory new_call_data_buy, bytes memory original_call_data_sell,\r\n        bytes memory new_call_data_sell, uint original_time, uint time,\r\n        address original_owner, uint borrow_amount) public isOwner {\r\n        // Buy NFT\r\n        exchange.approveOrder_([exchange_address,\r\n            address(this), // Maker address\r\n            original_owner, // Taker address\r\n            fee_recipient,\r\n            nft_address,\r\n            static_call_target,\r\n            weth_address],\r\n            [maker_relayer_fee,\r\n            taker_relayer_fee,\r\n            maker_protocol_fee,\r\n            taker_protocol_fee,\r\n            price,\r\n            auction_extra,\r\n            time,\r\n            expiration,\r\n            salt],\r\n            fee_method,\r\n            0,  // Side\r\n            sale_kind,\r\n            how_to_call,\r\n            call_data_buy,\r\n            replacement_pattern_buy,\r\n            static_extra_data,\r\n            true);\r\n        // call atomicmatch\r\n        exchange.atomicMatch_([exchange_address,\r\n            address(this), // Maker address\r\n            original_owner, // Taker address\r\n            fee_recipient,\r\n            nft_address,\r\n            static_call_target,\r\n            weth_address,\r\n            exchange_address,\r\n            original_owner,\r\n            address(0), // Taker address\r\n            fee_recipient,\r\n            nft_address,\r\n            static_call_target,\r\n            weth_address],\r\n            [maker_relayer_fee,\r\n            taker_relayer_fee,\r\n            maker_protocol_fee,\r\n            taker_protocol_fee,\r\n            price,\r\n            auction_extra,\r\n            time,\r\n            expiration,\r\n            salt,\r\n            maker_relayer_fee,\r\n            taker_relayer_fee,\r\n            maker_protocol_fee,\r\n            taker_protocol_fee,\r\n            price,\r\n            auction_extra,\r\n            original_time,\r\n            expiration,\r\n            original_salt],\r\n            [fee_method,\r\n            0,\r\n            sale_kind,\r\n            how_to_call,\r\n            fee_method,\r\n            1,\r\n            sale_kind,\r\n            how_to_call],\r\n            call_data_buy,\r\n            original_call_data_sell,\r\n            replacement_pattern_buy,\r\n            replacement_pattern_sell,\r\n            static_extra_data,\r\n            static_extra_data,\r\n            [0, 0],\r\n            [empty_bytes, empty_bytes, empty_bytes, empty_bytes, empty_bytes]);\r\n        // Place the NFT on sale\r\n        // call approveorder\r\n        exchange.approveOrder_([exchange_address,\r\n            address(this), // Maker address\r\n            address(0), // Taker address\r\n            fee_recipient,\r\n            nft_address,\r\n            static_call_target,\r\n            weth_address],\r\n            [maker_relayer_fee,\r\n            taker_relayer_fee,\r\n            maker_protocol_fee,\r\n            taker_protocol_fee,\r\n            borrow_amount,\r\n            auction_extra,\r\n            time,\r\n            expiration,\r\n            salt],\r\n            fee_method,\r\n            1,  // Side\r\n            sale_kind,\r\n            how_to_call,\r\n            new_call_data_sell,\r\n            replacement_pattern_sell,\r\n            static_extra_data,\r\n            true);\r\n            buyer.buyNFT(new_call_data_buy, new_call_data_sell, borrow_amount);\r\n    }\r\n\r\n    function transferBack() public {\r\n        ERC20 weth = ERC20(weth_address);\r\n        weth.transfer(address(buyer), weth.balanceOf(address(this)));\r\n    }\r\n}",
  "sourcePath": "C:\\Users\\Ibrahim\\Documents\\Coding\\nft-analysis\\truffle\\contracts\\wash-trader.sol",
  "compiler": {
    "name": "solc",
    "version": "0.8.10+commit.fc410830.Emscripten.clang"
  },
  "schemaVersion": "3.4.3",
  "updatedAt": "2021-12-03T18:02:28.887Z",
  "devdoc": {
    "kind": "dev",
    "methods": {},
    "version": 1
  },
  "userdoc": {
    "kind": "user",
    "methods": {},
    "version": 1
  }
}